:020000040000FA
:100000000C945D000C9485000C9485000C94850084
:100010000C9485000C9485000C9485000C9485004C
:100020000C9485000C9485000C9485000C9452026D
:100030000C9485000C9485000C9485000C9485002C
:100040000C9408020C9485000C9485000C94850097
:100050000C9485000C9485000C9485000C9485000C
:100060000C9485000C94850000000008000201003B
:100070000003040700000000000000000000000072
:10008000250028002B0000000000240027002A0083
:10009000040404040404040402020202020203032E
:1000A0000303030301020408102040800102040836
:1000B0001020010204081020660411241FBECFEF97
:1000C000D8E0DEBFCDBF11E0A0E0B1E0EAEEFDE098
:1000D00002C005900D92A030B107D9F721E0A0E051
:1000E000B1E001C01D92A436B207E1F710E0CDE502
:1000F000D0E004C02197FE010E94ED06CC35D10767
:10010000C9F70E9429030C94F3060C940000CF93C6
:10011000DF93DC018C918C3008F06EC0CB01FB01C9
:10012000EC55FF4F249180579F4FFC018491882309
:1001300099F090E0880F991FFC01EA57FF4FC59195
:10014000D491FC01E458FF4F859194918FB7F894B6
:10015000E881E22BE8838FBF8C91282F30E0F901F2
:10016000EE0FFF1FE20FF31FE05CFE4F962F9F7311
:100170006081607C692B60839BE011969C93119752
:1001800012961C9212972CE0622F0E94DA06829F30
:10019000B001112430E020E0AB01420F531FFA01FF
:1001A000EE0FFF1FE40FF51FE05CFE4F908196FD00
:1001B00016C02F5F3F4F2C30310571F781110FC0F2
:1001C0001092800082E0809381001092850010924E
:1001D0008400B19A80916F00826080936F00EC91EF
:1001E0008E2F90E0FC01EE0FFF1FE80FF91FE05C7F
:1001F000FE4F8081806480838C91DF91CF91089540
:1002000090E0FC01E859FF4F2491FC01EC55FF4FB1
:100210003491FC01E057FF4FE491EE23C9F0222313
:1002200039F0233001F1A8F4213019F1223029F1FD
:10023000F0E0EE0FFF1FE458FF4FA591B4918FB788
:10024000F894EC91611126C030953E233C938FBF0A
:1002500008952730A9F02830C9F0243049F780915B
:1002600080008F7D03C0809180008F778093800015
:10027000DFCF84B58F7784BDDBCF84B58F7DFBCF97
:100280008091B0008F778093B000D2CF8091B00082
:100290008F7DF9CF3E2BDACF8E50806480937C0027
:1002A00080917A00806480937A0080917A0086FD44
:1002B000FCCF809178009091790008953FB7F89431
:1002C00080913C0190913D01A0913E01B0913F0190
:1002D00026B5A89B05C02F3F19F00196A11DB11DA1
:1002E0003FBFBA2FA92F982F8827BC01CD01620FDD
:1002F000711D811D911D42E0660F771F881F991F98
:100300004A95D1F70895FC0180819181FB012081FC
:100310003181821B930B0895CF92DF92EF92FF926F
:10032000CF93DF93EC01603282E07807CCF5653B38
:10033000710514F064EB70E0898128E830E0281B37
:10034000310987FD3395220F331F220F331F6901B7
:10035000330FEE08FF088A8128E532E0281B3109B7
:1003600087FD3395220F331F220F331F032E000CFE
:10037000440B550B2C193D094E095F09DB0177FF32
:1003800002C0B0E0A0E00E946A0624EB30E040E04A
:1003900050E00E944006C20ED31EE41EF51EB601B8
:1003A000E881EC3070F5298188E890E0821B9109A2
:1003B00027FD9395880F991F880F991F6817790754
:1003C0007CF02A8188E592E0821B910927FD9395B4
:1003D000880F991F880F991F681779070CF4CB01B4
:1003E0000297880F991F4FB7F8942E2F30E0F9012C
:1003F000EE0FFF1FE20FF31FE05CFE4F928381833D
:100400004FBFDF91CF91FF90EF90DF90CF90089595
:100410001F920F920FB60F9211242F933F938F9339
:100420009F93AF93BF938091380190913901A09130
:100430003A01B0913B013091370123E0230F2D3772
:1004400058F50196A11DB11D209337018093380105
:1004500090933901A0933A01B0933B0180913C0104
:1004600090913D01A0913E01B0913F010196A11DE7
:10047000B11D80933C0190933D01A0933E01B09348
:100480003F01BF91AF919F918F913F912F910F901D
:100490000FBE0F901F90189526E8230F0296A11DFE
:1004A000B11DD2CF1F920F920FB60F9211242F932E
:1004B0003F934F935F936F937F938F939F93AF93EC
:1004C000BF93CF93DF93EF93FF9380910001C0918F
:1004D0000101D0E087FF24C01092850010928400B3
:1004E000809100018F5F8093000180910001082EB0
:1004F000000C990B8C179D0724F4809100018C301F
:10050000C4F18091840090918500049680349C49C8
:1005100008F47AC08091840090918500049676C09A
:1005200080910001082E000C990B8C179D07C4F6D2
:10053000E09100018E2FEE0F990BFC01EE0FFF1FD3
:10054000E80FF91FE05CFE4F808186FFC9CFE09184
:1005500000018E2FEE0F990BFC01EE0FFF1FE80F2D
:10056000F91FE05CFE4F808160E08F730E94000104
:10057000B7CF2091840030918500E09100018E2F4B
:10058000EE0F990BFC01EE0FFF1FE80FF91FE05C67
:10059000FE4F81819281820F931F909389008093F7
:1005A0008800E09100018E2FEE0F990BFC01EE0FF9
:1005B000FF1FE80FF91FE05CFE4F808186FF11C02E
:1005C000E09100018E2FEE0F990BFC01EE0FFF1F43
:1005D000E80FF91FE05CFE4F808161E08F730E949D
:1005E0000001FF91EF91DF91CF91BF91AF919F916A
:1005F0008F917F916F915F914F913F912F910F90CC
:100600000FBE0F901F90189580E49CE9909389008D
:10061000809388008FEF80930001E3CFFC019091DD
:1006200001019C3098F481E0890F8093010190834F
:10063000892F90E0FC01EE0FFF1FE80FF91FE05C2F
:10064000FE4F88EB9BE09283818308958FEF808338
:100650000895CF93DF9300D000D0CDB7DEB7789464
:1006600084B5826084BD84B5816084BD85B58260B7
:1006700085BD85B5816085BD80916E008160809368
:100680006E001092810080918100826080938100D1
:1006900080918100816080938100809180008160E1
:1006A000809380008091B10084608093B10080913C
:1006B000B00081608093B00080917A008460809364
:1006C0007A0080917A00826080937A0080917A002B
:1006D000816080937A0080917A00806880937A00AC
:1006E0001092C10065E070E08CE091E00E9487000C
:1006F00066E070E089E091E00E94870067E070E0CA
:1007000086E091E00E94870068E070E083E091E07D
:100710000E94870035E0332E44244A9443E0542E4F
:10072000612C712CE09002010E2D10E08EE00E94F1
:100730004C01000F111FF801ED5DFE4F9183808386
:100740008FE00E944C01F801E35DFE4F91838083AE
:1007500080E10E944C01F801E15FFE4F91838083AC
:1007600081E10E944C01F801E75EFE4F9183808396
:1007700023E831E042E050E065E070E083E291E0A0
:100780000E94BF0423E831E042E050E065E070E001
:100790008DE291E00E94BF0423E831E042E050E0A6
:1007A00065E070E08FE091E00E94BF0423E831E053
:1007B00042E050E065E070E089E191E00E94BF0412
:1007C000209102012F5F822F632D0E94DA06992368
:1007D00009F479C020930201A0912701B09128016A
:1007E00024E630E00E94E606A30192010E94400642
:1007F00029833A834B835C83A0911D01B0911E0134
:1008000024EB30E00E94E606A30192010E9440061C
:100810004901A0911301B091140124E630E00E9437
:10082000E606A30192010E9440066901A0913101F0
:10083000B091320124EB30E00E94E606A301920160
:100840000E944006B9018CE091E00E948C01698110
:100850007A8189E091E00E948C01B40186E091E008
:100860000E948C01B60183E091E00E948C010E94FD
:100870005E014B015C018FE0C82ED12CE12CF12CE4
:100880000E945E01681979098A099B09683E7340D4
:1008900081059105A8F321E0C21AD108E108F10809
:1008A00088EE880E83E0981EA11CB11CC114D104EF
:1008B000E104F10429F780E090E0892B09F432CFBC
:1008C0000E9400002FCF1092020186CF8CE091E0B1
:1008D0000E940E0389E091E00E940E0386E091E001
:1008E0000E940E0383E091E00C940E03CF93DF93FC
:1008F000DC012D91FB013191EC013883EB01288360
:1009000041505109CD01BF01141615068CF3DF913A
:10091000CF910895B0E0A0E0E0E9F4E00C947C060B
:100920006C01D62FC72F8A017901F9010995B80109
:1009300097FF15C08D2F9C2FF701099597FD08C0D3
:10094000B801C601F701099597FD16C0DC2DCD2D24
:100950008D2F9C2FCDB7DEB7E8E00C9498068D2F35
:100960009C2FF70109951816190694F3B801C601D2
:10097000F701099597FDEACFD02FC12FE9CFA8E065
:10098000B0E0E5ECF4E00C9472068C0158874F83DC
:1009900059019A013195219531093E832D836F804C
:1009A0007884600E711E6730710578F58F819885A7
:1009B000689F6001699FD00C789FD00C1124C00EF5
:1009C000D11E6C147D0420F02896E2E10C948E0672
:1009D000730113C047012F813885821A930AB7012A
:1009E000C401F50109951816190654F44F8158856C
:1009F000B401C7010E94760474010E151F0550F35F
:100A0000EF81F8856E0E7F1EDCCFCB019695879522
:100A10002F813885829F6001839FD00C929FD00CDC
:100A20001124C00ED11ECB010197829F1001839F1C
:100A3000300C929F300C11247801E20CF31C6730CB
:100A4000710509F442C0C701280169327105B0F18E
:100A500083E0769567958A95E1F7629F4001639FF1
:100A6000900C729F900C1124C401880F991F9A83D7
:100A70008983AC01400F511FB801680D791D9501A4
:100A8000C8010E948A042C01A601480D591D9194A9
:100A9000819491089501B601C601880D991D0E94A7
:100AA0008A046C01B701680D791D9501A701C70182
:100AB000E981FA818E1B9F0B0E948A049501AC018B
:100AC000B601C2010E948A046C014F815885B601AB
:100AD000C8010E9476044301630127011A8219822A
:100AE000EC14FD0408F446C0B801C601F5010995EF
:100AF0001816190654F1892B71F44F815885B601E7
:100B0000C3010E9476042F813885620E731E81E036
:100B100090E09A838983EF81F885CE0EDF1EE0CFC7
:100B2000892B71F44F815885B201C7010E94760468
:100B30002D813E81420E531E81E090E09A8389838D
:100B4000EB80FC80EC14FD04A8F0B801C701F501AE
:100B500009952D813E812E0D3F1D3C832B8397FFF0
:100B6000DFCF4F815885B701C6010E947604EB8024
:100B7000FC80CDCFEF81F8852E0E3F1E200E311E5A
:100B800029813A81232B09F58214930408F01CCFA4
:100B9000740113C06701EF81F885CE1ADF0AB7012F
:100BA000C601F50109951816190654F44F815885A8
:100BB000B601C7010E94760476010E151F0550F399
:100BC0008F819885880E991EDFCF46018618970879
:100BD000A301401B510B841695060CF4A4011416B6
:100BE000150634F4B601641B750BC8010E94760427
:100BF00092012E193F097901A101441955098F81EC
:100C00009885481B590B2417350708F4A9011416B9
:100C1000150634F4B101641B750BC6010E947604FD
:100C2000EF81F885E815F90548F4C401BF010E9479
:100C30002C069501AF01C8010E94BF042F813885A1
:100C40002E153F0508F0C0CE81010E191F09C701FE
:100C5000B9010E942C06A3CEAA1BBB1B51E107C001
:100C6000AA1FBB1FA617B70710F0A61BB70B881F3C
:100C7000991F5A95A9F780959095BC01CD010895CB
:100C8000052E97FB1EF400940E94570657FD07D0CF
:100C90000E94A90607FC03D04EF40C945706509509
:100CA0004095309521953F4F4F4F5F4F0895909558
:100CB0008095709561957F4F8F4F9F4F08950E944B
:100CC000CB06A59F900DB49F900DA49F800D911D04
:100CD00011240895B7FF0C945F060E945F06821BE3
:100CE000930B08952F923F924F925F926F927F9253
:100CF0008F929F92AF92BF92CF92DF92EF92FF922C
:100D00000F931F93CF93DF93CDB7DEB7CA1BDB0BD7
:100D10000FB6F894DEBF0FBECDBF09942A8839887C
:100D200048885F846E847D848C849B84AA84B98483
:100D3000C884DF80EE80FD800C811B81AA81B9818F
:100D4000CE0FD11D0FB6F894DEBF0FBECDBFED01A3
:100D50000895A1E21A2EAA1BBB1BFD010DC0AA1FFC
:100D6000BB1FEE1FFF1FA217B307E407F50720F014
:100D7000A21BB30BE40BF50B661F771F881F991F8F
:100D80001A9469F760957095809590959B01AC01D8
:100D9000BD01CF010895A29FB001B39FC001A39FE1
:100DA000700D811D1124911DB29F700D811D1124A4
:100DB000911D0895991B79E004C0991F961708F0BA
:100DC000961B881F7A95C9F7809508950E94CB06D7
:100DD000B7FF0895821B930B0895EE0FFF1F059038
:0A0DE000F491E02D0994F894FFCF80
:107E0000112484B714BE81FFF0D085E080938100F7
:107E100082E08093C00088E18093C10086E0809377
:107E2000C20080E18093C4008EE0C9D0259A86E02C
:107E300020E33CEF91E0309385002093840096BBD3
:107E4000B09BFECF1D9AA8958150A9F7CC24DD24C4
:107E500088248394B5E0AB2EA1E19A2EF3E0BF2EE7
:107E6000A2D0813461F49FD0082FAFD0023811F036
:107E7000013811F484E001C083E08DD089C08234E0
:107E800011F484E103C0853419F485E0A6D080C0E4
:107E9000853579F488D0E82EFF2485D0082F10E0AE
:107EA000102F00270E291F29000F111F8ED06801E7
:107EB0006FC0863521F484E090D080E0DECF843638
:107EC00009F040C070D06FD0082F6DD080E0C81688
:107ED00080E7D80618F4F601B7BEE895C0E0D1E017
:107EE00062D089930C17E1F7F0E0CF16F0E7DF06D8
:107EF00018F0F601B7BEE89568D007B600FCFDCFD4
:107F0000A601A0E0B1E02C9130E011968C91119780
:107F100090E0982F8827822B932B1296FA010C0160
:107F200087BEE89511244E5F5F4FF1E0A038BF0790
:107F300051F7F601A7BEE89507B600FCFDCF97BE46
:107F4000E89526C08437B1F42ED02DD0F82E2BD052
:107F50003CD0F601EF2C8F010F5F1F4F84911BD097
:107F6000EA94F801C1F70894C11CD11CFA94CF0C13
:107F7000D11C0EC0853739F428D08EE10CD085E9AC
:107F80000AD08FE07ACF813511F488E018D01DD067
:107F900080E101D065CF982F8091C00085FFFCCF94
:107FA0009093C60008958091C00087FFFCCF809118
:107FB000C00084FD01C0A8958091C6000895E0E648
:107FC000F0E098E1908380830895EDDF803219F02E
:107FD00088E0F5DFFFCF84E1DECF1F93182FE3DFCA
:107FE0001150E9F7F2DF1F91089580E0E8DFEE27F6
:047FF000FF270994CA
:027FFE00040479
:00000001FF
